:100B6800202000436C6F636B203A0020202D20204A
:0F0B78002D20200020203A20203A2020003A0093
:0B0BD300090D0700000D1E00160000B9
:1006210075F003A4240DF8E6FB3395E0FA75270273
:10063100227BFF7A0B79687F0222EF3395E0FEEF90
:100641002401FBE43EFA7527017D0F7F0122E5209D
:1006510075F00A84E5F0251AF51AE43519F5192221
:10066100AE19AF1A7C007D0A1205138E198F1A225A
:10067100F8A61AC3E51A940AE5196480948022E564
:100681002275F003A4240E227BFF7A0B79687F0286
:10069100227B007A00791EE4F527752805227B006C
:1006A100E4F52775283BFD227B007A007918E4F5F3
:1006B1002775280122E52275F003A4240D227B0071
:0506C1007A00793522EA
:10087E00120A3AE5331206297D017F01120B87E534
:10088E00341206297D047F01120B87E535120629E5
:10089E007D077F01120B87E5361206297D017F0247
:1008AE00120B87E5371206297D047F02120B87E5AE
:0B08BE00381206297D077F02020B871D
:10000E00E520D39400401DE520D3940A5016120625
:10001E004F7433251E1206714005E4F519F51A12B8
:10002E0006618019E520B40B071206927DFF800A47
:10003E00E520B40C081206927D01120A6C7B007A40
:10004E00007933E4F527752863FD120A6C7B007A7C
:10005E0000793475270175280CE4FD120A6CE5341D
:10006E0064016023E5346403601DE53464056017A4
:10007E00E53464076011E5346408600BE534640A06
:10008E006005E534B40C0B1206BF75270175281FE9
:10009E008046E53464046011E5346406600BE53493
:1000AE0064096005E534B40B0B1206BF75270175A4
:1000BE00281E8024E53464027023E53375F00412A3
:1000CE000477AFF0EF1206BF600875270175281C84
:1000DE00800675270175281DE4FD120A6C7B007AD7
:1000EE00007936E4F52775281DFD120A6C7A007921
:1000FE003712069F120A6C7A00793812069F120A7E
:10010E006CE51E700CE50AB401077D011201CC806E
:10011E000CE5331206297D017F01120B87E51EB413
:10012E00010CE50AB401077D041201CC800CE53404
:10013E001206297D047F01120B87E51EB40214E519
:10014E000AB4010F7BFF7A0B79687D077F01120BD2
:10015E0023800CE5351206297D077F01120B87E5FA
:10016E001EB4030FE50AB4010A7D01120632120B0A
:10017E0023800CE5361206297D017F02120B87E5DE
:10018E001EB4040FE50AB4010A7D04120632120BE6
:10019E0023800CE5371206297D047F02120B87E5BA
:1001AE001EB4050DE50AB401087D07120689020B7F
:1001BE0023E5381206297D077F02120B87227BFF6B
:0A01CE007A0B79687F01120B2322DF
:100A08008F227BFF7A0B796B7D0A7F01120B23AF54
:100A18002212063B120B87E5221206217D0A7F026D
:100A2800120B87E5221206821206277D0D7F02022D
:020A38000B872A
:10057A008F2212063B120B87E520D39400401EE51A
:10058A0020D3940A501712064F1206B625181206DF
:10059A00714005E4F519F51A1206618019E520B4CF
:1005AA000B071206A97DFF800AE520B40C08120683
:1005BA00A97D01120A6C1206B6F9E4FAFBF5277551
:1005CA00281DFD120A6C120680F9E4FAFB1206A233
:1005DA00120A6CE518700FE50AB4010A7D0A1206C0
:1005EA0089120B23800CE5221206217D0A7F021252
:1005FA000B87E518B40112E50AB4010D7BFF7A0BEB
:10060A0079687D0D7F02020B231206801206277D70
:07061A000D7F02120B872285
:10036100120BFD120C50120BA6120752E53714F5B1
:100371001B7A0B79737F0112046F7A0B797C7F02F0
:1003810012046F7BFF7A0B79857D0C7F02120B23A0
:100391001201D88F201207CC8F21E521602D24FE78
:1003A100600F1460111460132403701212087E8010
:1003B1000DE4F51C8008751C018003751C02AF1C3F
:1003C100120A08E51CB51703751703E520B40D15CE
:1003D100E51D7004F51E8008E51DB40103120752E6
:1003E100631D01800BE520B40E06E4F518631601C8
:1003F100E51D700512087E8008E51DB40103120099
:100401000EE5167007AF1C120A08800AE516B40142
:1004110005AF1C12057AE537651B603F85371BE484
:10042100F51FE51F1206B8F8E665367024E51F12C0
:100431000682F8E6B5371AE51F75F003A4240FF814
:10044100E6C36480F8E5386480984005851F17800D
:100451000A751703051FE51FB403C7E51764037089
:10046100030203917F017E00120B460203917BFF81
:060471007D01120B2322A5
:03000B00020A9E48
:040A9E00C0E0C0D024
:100AA200758A18758CFC050CE50C7002050B05099E
:100AB200E50970020508C394F4E50894014009753C
:080AC2000800750900630A0138
:050ACA00D0D0D0E032A5
:10095A00CFCDCFCECCCE1205257C007D0A1205253F
:10096A00ED2430FF120C421A227F0AEA24FFFDE42A
:10097A0034FFFC7E0022C2A58F80D2A7120C39C296
:0D098A00A722CFCDCFCECCCE120525EF2277
:080C39007F027EEFDEFEDFFC0E
:010C41002290
:08000300C2A6120980020C39AB
:080C4200D2A6120980020C3950
:100BBD00AE07BE0104ED148006BE0209ED243F44CC
:060BCD0080FF120003226C
:100BFD007F381200037F0C1200037F061200037F63
:040C0D0001020003DD
:0A0C1100AC03120BBDAF04020C424D
:060B23008B238A248925C2
:100B2900120BBDE4FDAB23AA24A9258D8275830090
:0C0B39001204B2FF6006120C420D80E9AD
:010B4500228D
:080AFC008E288F298C2A8D2B16
:100B04007F017E00E4FBEBC3952BE52A6480F87437
:0E0B14008098500AAC28AD291205130B80E81A
:010B220022B0
:040B87008A258B260A
:100B8B00120BBDAA27EAD39400400F120973120A65
:0A0B9B00FCAC25AD2612095A80EBD0
:010BA500222D
:10099700120BBDC3EA64809480400B7F2B120C427C
:1009A7008A318B32800E7F2D120C42C3E49BF532C5
:1009B700E49AF531AA30EAD39400400F1209731272
:0B09C7000AFCAC31AD3212095A80EB83
:0109D2002202
:0409D3008A3C8B3D92
:1009D700120BBDAA3EEAD3940040257F1012097579
:1009E700120AFCAC3CAD3D12098C540FFEC3940AAD
:1009F700EE5004243080022437FF120C421A80D5AF
:010A070022CC
:040ACF008A418B428B
:100AD300120BBDAA43EAD39400401DEA24FFFDE4B0
:100AE30034FFFC7F027E00120AFCAC41AD421209C6
:080AF3008C540112096B80DD37
:010AFB0022D8
:090BDE000733170B110C2D1E0545
:1008C90075F00A120477FF3395E0FEEFC4F8540F70
:1008D900C868FFEEC454F048FE2275F00A12047786
:1008E900ADF0ED3395E0FCEF2DFDEE3CFC22120955
:1008F90012EFC4540F75F00AA4FEEF540F2E22F51F
:0909090082EF558224FF92B42212
:050C5000C2B5C2B6228E
:06082D008C228D23AB07B5
:10083300D2B5E4FD74017E00A805088005C333CE5C
:1008430033CED8F9FFEB120908D2B6C2B60DBD08F4
:10085300E3E4FD74017E00A805088005C333CE33AD
:10086300CED8F9FFE5225EFEE5235F4E24FF92B466
:0A087300D2B6C2B60DBD08DBC2B557
:01087D002258
:02091200AD072F
:10091400E4F9430501D2B5FB74017E00A803088005
:1009240005C333CE33CED8F9FFED120908C2B6D2CF
:10093400B60BBB08E3E4FBD2B6C2B630B40D740107
:10094400A803088002C333D8FC42010BBB08E8C2E9
:05095400B5C2B4AF01C3
:01095900227B
:10075200E4FDFC7F8E12082DE5331208C9E5331241
:1007620008E37F8C12082DE5341208C9E53412081B
:10077200E37F8812082DE5351208C9E5351208E332
:100782007F8612082DE5361208C9E5361208E37F86
:100792008412082DE5371208C9E5371208E37F8273
:1007A20012082DE5381208C9E5381208E37F8012D5
:1007B200082DE5391208C9E5391208E37F8A1208C3
:0A07C2002D7D807C007F8E02082D43
:100A3A007F8C1208F7F5337F881208F7F5347F8622
:100A4A001208F7F5357F841208F7F5367F82120807
:100A5A00F7F5377F801208F7F5387F8A1208F7F51D
:010A6A003952
:010A6B002268
:100BE800EF1FAC0670011E4C600A7D027CEFDCFE34
:040BF800DDFC80ECB4
:010BFC0022D6
:1007CC00E4F52220B1137F14FE120BE830B1FD7F4B
:1007DC00147E00120BE875220120B0147F147E00E9
:1007EC00120BE830B0FD7F147E00120BE87522026C
:1007FC0020B2147F147E00120BE830B2FD7F147E01
:10080C0000120BE875220320B3147F147E00120B28
:10081C00E830B3FD7F147E00120BE8752204AF2282
:01082C0022A9
:100BA6005389F0438901758A18758CFCC28DD28CE5
:070BB600D2A9D2AFC2B9229F
:050C4A00007FF7DFFE52
:010C4F002282
:040B4600AD07AC0645
:100B4A00E4FBFAED25E0FFEC33FEC3EB9FEA9E508F
:0D0B5A000CB2A5120C4A0BBB00010A80E68C
:010B6700226B
:1001D800E4F5227590FFC2932097137F14FE120B4B
:1001E800E83097FD7F147E00120BE87522012096F7
:1001F800147F147E00120BE83096FD7F147E0012E7
:100208000BE87522052095147F147E00120BE83048
:1002180095FD7F147E00120BE87522092094147F47
:10022800147E00120BE83094FD7F147E00120BE858
:1002380075220D7590FFC2922097147F147E0012CC
:100248000BE83097FD7F147E00120BE87522022020
:1002580096147F147E00120BE83096FD7F147E0002
:10026800120BE87522062095147F147E00120BE805
:100278003095FD7F147E00120BE875220A20941435
:100288007F147E00120BE83094FD7F147E00120B61
:10029800E875220E7590FFC2912097147F147E0096
:1002A800120BE83097FD7F147E00120BE8752203CD
:1002B8002096147F147E00120BE83096FD7F147E82
:1002C80000120BE87522072095147F147E00120B8C
:1002D800E83095FD7F147E00120BE875220B209400
:1002E800147F147E00120BE83094FD7F147E0012F8
:1002F8000BE875220F7590FFC2902097147F147E2B
:1003080000120BE83097FD7F147E00120BE875226F
:10031800042096147F147E00120BE83096FD7F149B
:100328007E00120BE87522082095147F147E0012B7
:100338000BE83095FD7F147E00120BE875220C2027
:1003480094147F147E00120BE83094FD7F147E0015
:08035800120BE8752210AF2220
:01036000227A
:0A0C2F00EDD36480F8EF6480982292
:0A0C1B00120C2F40028002AF0522E8
:0A0C2500120C2F4004AF05800022DE
:100A6C00ED1204DF120499FFE528120C304009EF57
:100A7C009528142527120501120499FFC3E52712A6
:100A8C000C31500DC3E5279F14FFC3E5289F1205B9
:020A9C00012235
:030000000206C62F
:0C06C600787FE4F6D8FD75814302070D33
:10047700C2D530F707B2D563F0FF05F030E70CB20D
:10048700D5F4048463F0FF05F080018430D502F4CD
:0204970004223D
:10049900BB010689828A83E0225002E722BBFE0261
:0904A900E32289828A83E4932294
:1004B200BB010CE58229F582E5833AF583E02250FF
:1004C20006E92582F8E622BBFE06E92582F8E22249
:0D04D200E58229F582E5833AF583E4932263
:1004DF00BB010989828A83F8E028F022500327F7AD
:1004EF0022BBFE05F8E328F3228A838982F8E4937E
:0204FF002822B1
:10050100BB010689828A83F0225002F722BBFE01D9
:02051100F322D3
:10051300EF8DF0A4A8F0CF8CF0A428CE8DF0A42EFC
:02052300FE22B6
:10052500BC000BBE0029EF8DF084FFADF022E4CCBA
:10053500F875F008EF2FFFEE33FEEC33FCEE9DEC83
:10054500984005FCEE9DFE0FD5F0E9E4CEFD22EDC9
:10055500F8F5F0EE8420D21CFEADF075F008EF2F13
:10056500FFED33FD4007985006D5F0F222C398FD04
:050575000FD5F0EA22A1
:1006D200020361E493A3F8E493A34003F68001F2DA
:1006E20008DFF48029E493A3F85407240CC8C33329
:1006F200C4540F4420C8834004F456800146F6DFF8
:10070200E4800B0102040810204080900BD3E47EA9
:10071200019360BCA3FF543F30E509541FFEE493EC
:10072200A360010ECF54C025E060A840B8E493A3B3
:10073200FAE493A3F8E493A3C8C582C8CAC583CADE
:10074200F0A3C8C582C8CAC583CADFE9DEE780BE96
:010BE700000D
:00000001FF
